{
  "_format": "hh-sol-artifact-1",
  "contractName": "ETHDaddy",
  "sourceName": "contracts/ETHDaddy.sol",
  "abi": [
    {
      "inputs": [
        {
          "internalType": "string",
          "name": "_name",
          "type": "string"
        },
        {
          "internalType": "string",
          "name": "_symbol",
          "type": "string"
        }
      ],
      "stateMutability": "nonpayable",
      "type": "constructor"
    },
    {
      "anonymous": false,
      "inputs": [
        {
          "indexed": true,
          "internalType": "address",
          "name": "owner",
          "type": "address"
        },
        {
          "indexed": true,
          "internalType": "address",
          "name": "approved",
          "type": "address"
        },
        {
          "indexed": true,
          "internalType": "uint256",
          "name": "tokenId",
          "type": "uint256"
        }
      ],
      "name": "Approval",
      "type": "event"
    },
    {
      "anonymous": false,
      "inputs": [
        {
          "indexed": true,
          "internalType": "address",
          "name": "owner",
          "type": "address"
        },
        {
          "indexed": true,
          "internalType": "address",
          "name": "operator",
          "type": "address"
        },
        {
          "indexed": false,
          "internalType": "bool",
          "name": "approved",
          "type": "bool"
        }
      ],
      "name": "ApprovalForAll",
      "type": "event"
    },
    {
      "anonymous": false,
      "inputs": [
        {
          "indexed": true,
          "internalType": "address",
          "name": "from",
          "type": "address"
        },
        {
          "indexed": true,
          "internalType": "address",
          "name": "to",
          "type": "address"
        },
        {
          "indexed": true,
          "internalType": "uint256",
          "name": "tokenId",
          "type": "uint256"
        }
      ],
      "name": "Transfer",
      "type": "event"
    },
    {
      "inputs": [
        {
          "internalType": "address",
          "name": "to",
          "type": "address"
        },
        {
          "internalType": "uint256",
          "name": "tokenId",
          "type": "uint256"
        }
      ],
      "name": "approve",
      "outputs": [],
      "stateMutability": "nonpayable",
      "type": "function"
    },
    {
      "inputs": [
        {
          "internalType": "address",
          "name": "owner",
          "type": "address"
        }
      ],
      "name": "balanceOf",
      "outputs": [
        {
          "internalType": "uint256",
          "name": "",
          "type": "uint256"
        }
      ],
      "stateMutability": "view",
      "type": "function"
    },
    {
      "inputs": [
        {
          "internalType": "uint256",
          "name": "",
          "type": "uint256"
        }
      ],
      "name": "domains",
      "outputs": [
        {
          "internalType": "string",
          "name": "name",
          "type": "string"
        },
        {
          "internalType": "uint256",
          "name": "cost",
          "type": "uint256"
        },
        {
          "internalType": "bool",
          "name": "isOwned",
          "type": "bool"
        }
      ],
      "stateMutability": "view",
      "type": "function"
    },
    {
      "inputs": [
        {
          "internalType": "uint256",
          "name": "tokenId",
          "type": "uint256"
        }
      ],
      "name": "getApproved",
      "outputs": [
        {
          "internalType": "address",
          "name": "",
          "type": "address"
        }
      ],
      "stateMutability": "view",
      "type": "function"
    },
    {
      "inputs": [],
      "name": "getBalance",
      "outputs": [
        {
          "internalType": "uint256",
          "name": "",
          "type": "uint256"
        }
      ],
      "stateMutability": "view",
      "type": "function"
    },
    {
      "inputs": [
        {
          "internalType": "uint256",
          "name": "_id",
          "type": "uint256"
        }
      ],
      "name": "getDomain",
      "outputs": [
        {
          "components": [
            {
              "internalType": "string",
              "name": "name",
              "type": "string"
            },
            {
              "internalType": "uint256",
              "name": "cost",
              "type": "uint256"
            },
            {
              "internalType": "bool",
              "name": "isOwned",
              "type": "bool"
            }
          ],
          "internalType": "struct ETHDaddy.Domain",
          "name": "",
          "type": "tuple"
        }
      ],
      "stateMutability": "view",
      "type": "function"
    },
    {
      "inputs": [
        {
          "internalType": "address",
          "name": "owner",
          "type": "address"
        },
        {
          "internalType": "address",
          "name": "operator",
          "type": "address"
        }
      ],
      "name": "isApprovedForAll",
      "outputs": [
        {
          "internalType": "bool",
          "name": "",
          "type": "bool"
        }
      ],
      "stateMutability": "view",
      "type": "function"
    },
    {
      "inputs": [
        {
          "internalType": "string",
          "name": "_name",
          "type": "string"
        },
        {
          "internalType": "uint256",
          "name": "_cost",
          "type": "uint256"
        }
      ],
      "name": "list",
      "outputs": [],
      "stateMutability": "nonpayable",
      "type": "function"
    },
    {
      "inputs": [],
      "name": "maxSupply",
      "outputs": [
        {
          "internalType": "uint256",
          "name": "",
          "type": "uint256"
        }
      ],
      "stateMutability": "view",
      "type": "function"
    },
    {
      "inputs": [
        {
          "internalType": "uint256",
          "name": "_id",
          "type": "uint256"
        }
      ],
      "name": "mint",
      "outputs": [],
      "stateMutability": "payable",
      "type": "function"
    },
    {
      "inputs": [],
      "name": "name",
      "outputs": [
        {
          "internalType": "string",
          "name": "",
          "type": "string"
        }
      ],
      "stateMutability": "view",
      "type": "function"
    },
    {
      "inputs": [],
      "name": "owner",
      "outputs": [
        {
          "internalType": "address",
          "name": "",
          "type": "address"
        }
      ],
      "stateMutability": "view",
      "type": "function"
    },
    {
      "inputs": [
        {
          "internalType": "uint256",
          "name": "tokenId",
          "type": "uint256"
        }
      ],
      "name": "ownerOf",
      "outputs": [
        {
          "internalType": "address",
          "name": "",
          "type": "address"
        }
      ],
      "stateMutability": "view",
      "type": "function"
    },
    {
      "inputs": [
        {
          "internalType": "address",
          "name": "from",
          "type": "address"
        },
        {
          "internalType": "address",
          "name": "to",
          "type": "address"
        },
        {
          "internalType": "uint256",
          "name": "tokenId",
          "type": "uint256"
        }
      ],
      "name": "safeTransferFrom",
      "outputs": [],
      "stateMutability": "nonpayable",
      "type": "function"
    },
    {
      "inputs": [
        {
          "internalType": "address",
          "name": "from",
          "type": "address"
        },
        {
          "internalType": "address",
          "name": "to",
          "type": "address"
        },
        {
          "internalType": "uint256",
          "name": "tokenId",
          "type": "uint256"
        },
        {
          "internalType": "bytes",
          "name": "data",
          "type": "bytes"
        }
      ],
      "name": "safeTransferFrom",
      "outputs": [],
      "stateMutability": "nonpayable",
      "type": "function"
    },
    {
      "inputs": [
        {
          "internalType": "address",
          "name": "operator",
          "type": "address"
        },
        {
          "internalType": "bool",
          "name": "approved",
          "type": "bool"
        }
      ],
      "name": "setApprovalForAll",
      "outputs": [],
      "stateMutability": "nonpayable",
      "type": "function"
    },
    {
      "inputs": [
        {
          "internalType": "bytes4",
          "name": "interfaceId",
          "type": "bytes4"
        }
      ],
      "name": "supportsInterface",
      "outputs": [
        {
          "internalType": "bool",
          "name": "",
          "type": "bool"
        }
      ],
      "stateMutability": "view",
      "type": "function"
    },
    {
      "inputs": [],
      "name": "symbol",
      "outputs": [
        {
          "internalType": "string",
          "name": "",
          "type": "string"
        }
      ],
      "stateMutability": "view",
      "type": "function"
    },
    {
      "inputs": [
        {
          "internalType": "uint256",
          "name": "tokenId",
          "type": "uint256"
        }
      ],
      "name": "tokenURI",
      "outputs": [
        {
          "internalType": "string",
          "name": "",
          "type": "string"
        }
      ],
      "stateMutability": "view",
      "type": "function"
    },
    {
      "inputs": [],
      "name": "totalSupply",
      "outputs": [
        {
          "internalType": "uint256",
          "name": "",
          "type": "uint256"
        }
      ],
      "stateMutability": "view",
      "type": "function"
    },
    {
      "inputs": [
        {
          "internalType": "address",
          "name": "from",
          "type": "address"
        },
        {
          "internalType": "address",
          "name": "to",
          "type": "address"
        },
        {
          "internalType": "uint256",
          "name": "tokenId",
          "type": "uint256"
        }
      ],
      "name": "transferFrom",
      "outputs": [],
      "stateMutability": "nonpayable",
      "type": "function"
    },
    {
      "inputs": [],
      "name": "withdraw",
      "outputs": [],
      "stateMutability": "nonpayable",
      "type": "function"
    }
  ],
  "bytecode": "0x60806040523480156200001157600080fd5b50604051620038953803806200389583398181016040528101906200003791906200023b565b818181600090816200004a91906200050b565b5080600190816200005c91906200050b565b50505033600860006101000a81548173ffffffffffffffffffffffffffffffffffffffff021916908373ffffffffffffffffffffffffffffffffffffffff1602179055505050620005f2565b6000604051905090565b600080fd5b600080fd5b600080fd5b600080fd5b6000601f19601f8301169050919050565b7f4e487b7100000000000000000000000000000000000000000000000000000000600052604160045260246000fd5b6200011182620000c6565b810181811067ffffffffffffffff82111715620001335762000132620000d7565b5b80604052505050565b600062000148620000a8565b905062000156828262000106565b919050565b600067ffffffffffffffff821115620001795762000178620000d7565b5b6200018482620000c6565b9050602081019050919050565b60005b83811015620001b157808201518184015260208101905062000194565b60008484015250505050565b6000620001d4620001ce846200015b565b6200013c565b905082815260208101848484011115620001f357620001f2620000c1565b5b6200020084828562000191565b509392505050565b600082601f83011262000220576200021f620000bc565b5b815162000232848260208601620001bd565b91505092915050565b60008060408385031215620002555762000254620000b2565b5b600083015167ffffffffffffffff811115620002765762000275620000b7565b5b620002848582860162000208565b925050602083015167ffffffffffffffff811115620002a857620002a7620000b7565b5b620002b68582860162000208565b9150509250929050565b600081519050919050565b7f4e487b7100000000000000000000000000000000000000000000000000000000600052602260045260246000fd5b600060028204905060018216806200031357607f821691505b602082108103620003295762000328620002cb565b5b50919050565b60008190508160005260206000209050919050565b60006020601f8301049050919050565b600082821b905092915050565b600060088302620003937fffffffffffffffffffffffffffffffffffffffffffffffffffffffffffffffff8262000354565b6200039f868362000354565b95508019841693508086168417925050509392505050565b6000819050919050565b6000819050919050565b6000620003ec620003e6620003e084620003b7565b620003c1565b620003b7565b9050919050565b6000819050919050565b6200040883620003cb565b620004206200041782620003f3565b84845462000361565b825550505050565b600090565b6200043762000428565b62000444818484620003fd565b505050565b5b818110156200046c57620004606000826200042d565b6001810190506200044a565b5050565b601f821115620004bb5762000485816200032f565b620004908462000344565b81016020851015620004a0578190505b620004b8620004af8562000344565b83018262000449565b50505b505050565b600082821c905092915050565b6000620004e060001984600802620004c0565b1980831691505092915050565b6000620004fb8383620004cd565b9150826002028217905092915050565b6200051682620002c0565b67ffffffffffffffff811115620005325762000531620000d7565b5b6200053e8254620002fa565b6200054b82828562000470565b600060209050601f8311600181146200058357600084156200056e578287015190505b6200057a8582620004ed565b865550620005ea565b601f19841662000593866200032f565b60005b82811015620005bd5784890151825560018201915060208501945060208101905062000596565b86831015620005dd5784890151620005d9601f891682620004cd565b8355505b6001600288020188555050505b505050505050565b61329380620006026000396000f3fe6080604052600436106101355760003560e01c80636352211e116100ab578063a0712d681161006f578063a0712d681461043c578063a22cb46514610458578063b88d4fde14610481578063c87b56dd146104aa578063d5abeb01146104e7578063e985e9c51461051257610135565b80636352211e1461032d57806366cf8fab1461036a57806370a08231146103a95780638da5cb5b146103e657806395d89b411461041157610135565b806318160ddd116100fd57806318160ddd146102335780631a7a98e21461025e57806323b872dd1461029b5780633ccfd60b146102c457806342842e0e146102db5780634a878dfa1461030457610135565b806301ffc9a71461013a57806306fdde0314610177578063081812fc146101a2578063095ea7b3146101df57806312065fe014610208575b600080fd5b34801561014657600080fd5b50610161600480360381019061015c9190611f67565b61054f565b60405161016e9190611faf565b60405180910390f35b34801561018357600080fd5b5061018c610631565b604051610199919061205a565b60405180910390f35b3480156101ae57600080fd5b506101c960048036038101906101c491906120b2565b6106c3565b6040516101d69190612120565b60405180910390f35b3480156101eb57600080fd5b5061020660048036038101906102019190612167565b610709565b005b34801561021457600080fd5b5061021d610820565b60405161022a91906121b6565b60405180910390f35b34801561023f57600080fd5b50610248610828565b60405161025591906121b6565b60405180910390f35b34801561026a57600080fd5b50610285600480360381019061028091906120b2565b61082e565b6040516102929190612289565b60405180910390f35b3480156102a757600080fd5b506102c260048036038101906102bd91906122ab565b610912565b005b3480156102d057600080fd5b506102d9610972565b005b3480156102e757600080fd5b5061030260048036038101906102fd91906122ab565b610a9d565b005b34801561031057600080fd5b5061032b60048036038101906103269190612433565b610abd565b005b34801561033957600080fd5b50610354600480360381019061034f91906120b2565b610bdf565b6040516103619190612120565b60405180910390f35b34801561037657600080fd5b50610391600480360381019061038c91906120b2565b610c65565b6040516103a09392919061248f565b60405180910390f35b3480156103b557600080fd5b506103d060048036038101906103cb91906124cd565b610d24565b6040516103dd91906121b6565b60405180910390f35b3480156103f257600080fd5b506103fb610ddb565b6040516104089190612120565b60405180910390f35b34801561041d57600080fd5b50610426610e01565b604051610433919061205a565b60405180910390f35b610456600480360381019061045191906120b2565b610e93565b005b34801561046457600080fd5b5061047f600480360381019061047a9190612526565b610f90565b005b34801561048d57600080fd5b506104a860048036038101906104a39190612607565b610fa6565b005b3480156104b657600080fd5b506104d160048036038101906104cc91906120b2565b611008565b6040516104de919061205a565b60405180910390f35b3480156104f357600080fd5b506104fc611070565b60405161050991906121b6565b60405180910390f35b34801561051e57600080fd5b506105396004803603810190610534919061268a565b611076565b6040516105469190611faf565b60405180910390f35b60007f80ac58cd000000000000000000000000000000000000000000000000000000007bffffffffffffffffffffffffffffffffffffffffffffffffffffffff1916827bffffffffffffffffffffffffffffffffffffffffffffffffffffffff1916148061061a57507f5b5e139f000000000000000000000000000000000000000000000000000000007bffffffffffffffffffffffffffffffffffffffffffffffffffffffff1916827bffffffffffffffffffffffffffffffffffffffffffffffffffffffff1916145b8061062a57506106298261110a565b5b9050919050565b606060008054610640906126f9565b80601f016020809104026020016040519081016040528092919081815260200182805461066c906126f9565b80156106b95780601f1061068e576101008083540402835291602001916106b9565b820191906000526020600020905b81548152906001019060200180831161069c57829003601f168201915b5050505050905090565b60006106ce82611174565b6004600083815260200190815260200160002060009054906101000a900473ffffffffffffffffffffffffffffffffffffffff169050919050565b600061071482610bdf565b90508073ffffffffffffffffffffffffffffffffffffffff168373ffffffffffffffffffffffffffffffffffffffff1603610784576040517f08c379a000000000000000000000000000000000000000000000000000000000815260040161077b9061279c565b60405180910390fd5b8073ffffffffffffffffffffffffffffffffffffffff166107a36111bf565b73ffffffffffffffffffffffffffffffffffffffff1614806107d257506107d1816107cc6111bf565b611076565b5b610811576040517f08c379a00000000000000000000000000000000000000000000000000000000081526004016108089061282e565b60405180910390fd5b61081b83836111c7565b505050565b600047905090565b60075481565b610836611ed8565b60096000838152602001908152602001600020604051806060016040529081600082018054610864906126f9565b80601f0160208091040260200160405190810160405280929190818152602001828054610890906126f9565b80156108dd5780601f106108b2576101008083540402835291602001916108dd565b820191906000526020600020905b8154815290600101906020018083116108c057829003601f168201915b50505050508152602001600182015481526020016002820160009054906101000a900460ff1615151515815250509050919050565b61092361091d6111bf565b82611280565b610962576040517f08c379a0000000000000000000000000000000000000000000000000000000008152600401610959906128c0565b60405180910390fd5b61096d838383611315565b505050565b600860009054906101000a900473ffffffffffffffffffffffffffffffffffffffff1673ffffffffffffffffffffffffffffffffffffffff163373ffffffffffffffffffffffffffffffffffffffff1614610a02576040517f08c379a00000000000000000000000000000000000000000000000000000000081526004016109f99061292c565b60405180910390fd5b6000600860009054906101000a900473ffffffffffffffffffffffffffffffffffffffff1673ffffffffffffffffffffffffffffffffffffffff1647604051610a4a9061297d565b60006040518083038185875af1925050503d8060008114610a87576040519150601f19603f3d011682016040523d82523d6000602084013e610a8c565b606091505b5050905080610a9a57600080fd5b50565b610ab883838360405180602001604052806000815250610fa6565b505050565b600860009054906101000a900473ffffffffffffffffffffffffffffffffffffffff1673ffffffffffffffffffffffffffffffffffffffff163373ffffffffffffffffffffffffffffffffffffffff1614610b4d576040517f08c379a0000000000000000000000000000000000000000000000000000000008152600401610b449061292c565b60405180910390fd5b60066000815480929190610b60906129c1565b91905055506040518060600160405280838152602001828152602001600015158152506009600060065481526020019081526020016000206000820151816000019081610bad9190612bb5565b506020820151816001015560408201518160020160006101000a81548160ff0219169083151502179055509050505050565b600080610beb8361160e565b9050600073ffffffffffffffffffffffffffffffffffffffff168173ffffffffffffffffffffffffffffffffffffffff1603610c5c576040517f08c379a0000000000000000000000000000000000000000000000000000000008152600401610c5390612cd3565b60405180910390fd5b80915050919050565b6009602052806000526040600020600091509050806000018054610c88906126f9565b80601f0160208091040260200160405190810160405280929190818152602001828054610cb4906126f9565b8015610d015780601f10610cd657610100808354040283529160200191610d01565b820191906000526020600020905b815481529060010190602001808311610ce457829003601f168201915b5050505050908060010154908060020160009054906101000a900460ff16905083565b60008073ffffffffffffffffffffffffffffffffffffffff168273ffffffffffffffffffffffffffffffffffffffff1603610d94576040517f08c379a0000000000000000000000000000000000000000000000000000000008152600401610d8b90612d65565b60405180910390fd5b600360008373ffffffffffffffffffffffffffffffffffffffff1673ffffffffffffffffffffffffffffffffffffffff168152602001908152602001600020549050919050565b600860009054906101000a900473ffffffffffffffffffffffffffffffffffffffff1681565b606060018054610e10906126f9565b80601f0160208091040260200160405190810160405280929190818152602001828054610e3c906126f9565b8015610e895780601f10610e5e57610100808354040283529160200191610e89565b820191906000526020600020905b815481529060010190602001808311610e6c57829003601f168201915b5050505050905090565b60008103610ea057600080fd5b600654811115610eaf57600080fd5b600015156009600083815260200190815260200160002060020160009054906101000a900460ff16151514610ee357600080fd5b6009600082815260200190815260200160002060010154341015610f3c576040517f08c379a0000000000000000000000000000000000000000000000000000000008152600401610f3390612dd1565b60405180910390fd5b60016009600083815260200190815260200160002060020160006101000a81548160ff02191690831515021790555060076000815480929190610f7e906129c1565b9190505550610f8d338261164b565b50565b610fa2610f9b6111bf565b8383611669565b5050565b610fb7610fb16111bf565b83611280565b610ff6576040517f08c379a0000000000000000000000000000000000000000000000000000000008152600401610fed906128c0565b60405180910390fd5b611002848484846117d5565b50505050565b606061101382611174565b600061101d611831565b9050600081511161103d5760405180602001604052806000815250611068565b8061104784611848565b604051602001611058929190612e2d565b6040516020818303038152906040525b915050919050565b60065481565b6000600560008473ffffffffffffffffffffffffffffffffffffffff1673ffffffffffffffffffffffffffffffffffffffff16815260200190815260200160002060008373ffffffffffffffffffffffffffffffffffffffff1673ffffffffffffffffffffffffffffffffffffffff16815260200190815260200160002060009054906101000a900460ff16905092915050565b60007f01ffc9a7000000000000000000000000000000000000000000000000000000007bffffffffffffffffffffffffffffffffffffffffffffffffffffffff1916827bffffffffffffffffffffffffffffffffffffffffffffffffffffffff1916149050919050565b61117d81611916565b6111bc576040517f08c379a00000000000000000000000000000000000000000000000000000000081526004016111b390612cd3565b60405180910390fd5b50565b600033905090565b816004600083815260200190815260200160002060006101000a81548173ffffffffffffffffffffffffffffffffffffffff021916908373ffffffffffffffffffffffffffffffffffffffff160217905550808273ffffffffffffffffffffffffffffffffffffffff1661123a83610bdf565b73ffffffffffffffffffffffffffffffffffffffff167f8c5be1e5ebec7d5bd14f71427d1e84f3dd0314c0f7b2291e5b200ac8c7c3b92560405160405180910390a45050565b60008061128c83610bdf565b90508073ffffffffffffffffffffffffffffffffffffffff168473ffffffffffffffffffffffffffffffffffffffff1614806112ce57506112cd8185611076565b5b8061130c57508373ffffffffffffffffffffffffffffffffffffffff166112f4846106c3565b73ffffffffffffffffffffffffffffffffffffffff16145b91505092915050565b8273ffffffffffffffffffffffffffffffffffffffff1661133582610bdf565b73ffffffffffffffffffffffffffffffffffffffff161461138b576040517f08c379a000000000000000000000000000000000000000000000000000000000815260040161138290612ec3565b60405180910390fd5b600073ffffffffffffffffffffffffffffffffffffffff168273ffffffffffffffffffffffffffffffffffffffff16036113fa576040517f08c379a00000000000000000000000000000000000000000000000000000000081526004016113f190612f55565b60405180910390fd5b6114078383836001611957565b8273ffffffffffffffffffffffffffffffffffffffff1661142782610bdf565b73ffffffffffffffffffffffffffffffffffffffff161461147d576040517f08c379a000000000000000000000000000000000000000000000000000000000815260040161147490612ec3565b60405180910390fd5b6004600082815260200190815260200160002060006101000a81549073ffffffffffffffffffffffffffffffffffffffff02191690556001600360008573ffffffffffffffffffffffffffffffffffffffff1673ffffffffffffffffffffffffffffffffffffffff168152602001908152602001600020600082825403925050819055506001600360008473ffffffffffffffffffffffffffffffffffffffff1673ffffffffffffffffffffffffffffffffffffffff16815260200190815260200160002060008282540192505081905550816002600083815260200190815260200160002060006101000a81548173ffffffffffffffffffffffffffffffffffffffff021916908373ffffffffffffffffffffffffffffffffffffffff160217905550808273ffffffffffffffffffffffffffffffffffffffff168473ffffffffffffffffffffffffffffffffffffffff167fddf252ad1be2c89b69c2b068fc378daa952ba7f163c4a11628f55a4df523b3ef60405160405180910390a4611609838383600161195d565b505050565b60006002600083815260200190815260200160002060009054906101000a900473ffffffffffffffffffffffffffffffffffffffff169050919050565b611665828260405180602001604052806000815250611963565b5050565b8173ffffffffffffffffffffffffffffffffffffffff168373ffffffffffffffffffffffffffffffffffffffff16036116d7576040517f08c379a00000000000000000000000000000000000000000000000000000000081526004016116ce90612fc1565b60405180910390fd5b80600560008573ffffffffffffffffffffffffffffffffffffffff1673ffffffffffffffffffffffffffffffffffffffff16815260200190815260200160002060008473ffffffffffffffffffffffffffffffffffffffff1673ffffffffffffffffffffffffffffffffffffffff16815260200190815260200160002060006101000a81548160ff0219169083151502179055508173ffffffffffffffffffffffffffffffffffffffff168373ffffffffffffffffffffffffffffffffffffffff167f17307eab39ab6107e8899845ad3d59bd9653f200f220920489ca2b5937696c31836040516117c89190611faf565b60405180910390a3505050565b6117e0848484611315565b6117ec848484846119be565b61182b576040517f08c379a000000000000000000000000000000000000000000000000000000000815260040161182290613053565b60405180910390fd5b50505050565b606060405180602001604052806000815250905090565b60606000600161185784611b45565b01905060008167ffffffffffffffff81111561187657611875612308565b5b6040519080825280601f01601f1916602001820160405280156118a85781602001600182028036833780820191505090505b509050600082602001820190505b60011561190b578080600190039150507f3031323334353637383961626364656600000000000000000000000000000000600a86061a8153600a85816118ff576118fe613073565b5b049450600085036118b6575b819350505050919050565b60008073ffffffffffffffffffffffffffffffffffffffff166119388361160e565b73ffffffffffffffffffffffffffffffffffffffff1614159050919050565b50505050565b50505050565b61196d8383611c98565b61197a60008484846119be565b6119b9576040517f08c379a00000000000000000000000000000000000000000000000000000000081526004016119b090613053565b60405180910390fd5b505050565b60006119df8473ffffffffffffffffffffffffffffffffffffffff16611eb5565b15611b38578373ffffffffffffffffffffffffffffffffffffffff1663150b7a02611a086111bf565b8786866040518563ffffffff1660e01b8152600401611a2a94939291906130f7565b6020604051808303816000875af1925050508015611a6657506040513d601f19601f82011682018060405250810190611a639190613158565b60015b611ae8573d8060008114611a96576040519150601f19603f3d011682016040523d82523d6000602084013e611a9b565b606091505b506000815103611ae0576040517f08c379a0000000000000000000000000000000000000000000000000000000008152600401611ad790613053565b60405180910390fd5b805181602001fd5b63150b7a0260e01b7bffffffffffffffffffffffffffffffffffffffffffffffffffffffff1916817bffffffffffffffffffffffffffffffffffffffffffffffffffffffff191614915050611b3d565b600190505b949350505050565b600080600090507a184f03e93ff9f4daa797ed6e38ed64bf6a1f0100000000000000008310611ba3577a184f03e93ff9f4daa797ed6e38ed64bf6a1f0100000000000000008381611b9957611b98613073565b5b0492506040810190505b6d04ee2d6d415b85acef81000000008310611be0576d04ee2d6d415b85acef81000000008381611bd657611bd5613073565b5b0492506020810190505b662386f26fc100008310611c0f57662386f26fc100008381611c0557611c04613073565b5b0492506010810190505b6305f5e1008310611c38576305f5e1008381611c2e57611c2d613073565b5b0492506008810190505b6127108310611c5d576127108381611c5357611c52613073565b5b0492506004810190505b60648310611c805760648381611c7657611c75613073565b5b0492506002810190505b600a8310611c8f576001810190505b80915050919050565b600073ffffffffffffffffffffffffffffffffffffffff168273ffffffffffffffffffffffffffffffffffffffff1603611d07576040517f08c379a0000000000000000000000000000000000000000000000000000000008152600401611cfe906131d1565b60405180910390fd5b611d1081611916565b15611d50576040517f08c379a0000000000000000000000000000000000000000000000000000000008152600401611d479061323d565b60405180910390fd5b611d5e600083836001611957565b611d6781611916565b15611da7576040517f08c379a0000000000000000000000000000000000000000000000000000000008152600401611d9e9061323d565b60405180910390fd5b6001600360008473ffffffffffffffffffffffffffffffffffffffff1673ffffffffffffffffffffffffffffffffffffffff16815260200190815260200160002060008282540192505081905550816002600083815260200190815260200160002060006101000a81548173ffffffffffffffffffffffffffffffffffffffff021916908373ffffffffffffffffffffffffffffffffffffffff160217905550808273ffffffffffffffffffffffffffffffffffffffff16600073ffffffffffffffffffffffffffffffffffffffff167fddf252ad1be2c89b69c2b068fc378daa952ba7f163c4a11628f55a4df523b3ef60405160405180910390a4611eb160008383600161195d565b5050565b6000808273ffffffffffffffffffffffffffffffffffffffff163b119050919050565b604051806060016040528060608152602001600081526020016000151581525090565b6000604051905090565b600080fd5b600080fd5b60007fffffffff0000000000000000000000000000000000000000000000000000000082169050919050565b611f4481611f0f565b8114611f4f57600080fd5b50565b600081359050611f6181611f3b565b92915050565b600060208284031215611f7d57611f7c611f05565b5b6000611f8b84828501611f52565b91505092915050565b60008115159050919050565b611fa981611f94565b82525050565b6000602082019050611fc46000830184611fa0565b92915050565b600081519050919050565b600082825260208201905092915050565b60005b83811015612004578082015181840152602081019050611fe9565b60008484015250505050565b6000601f19601f8301169050919050565b600061202c82611fca565b6120368185611fd5565b9350612046818560208601611fe6565b61204f81612010565b840191505092915050565b600060208201905081810360008301526120748184612021565b905092915050565b6000819050919050565b61208f8161207c565b811461209a57600080fd5b50565b6000813590506120ac81612086565b92915050565b6000602082840312156120c8576120c7611f05565b5b60006120d68482850161209d565b91505092915050565b600073ffffffffffffffffffffffffffffffffffffffff82169050919050565b600061210a826120df565b9050919050565b61211a816120ff565b82525050565b60006020820190506121356000830184612111565b92915050565b612144816120ff565b811461214f57600080fd5b50565b6000813590506121618161213b565b92915050565b6000806040838503121561217e5761217d611f05565b5b600061218c85828601612152565b925050602061219d8582860161209d565b9150509250929050565b6121b08161207c565b82525050565b60006020820190506121cb60008301846121a7565b92915050565b600082825260208201905092915050565b60006121ed82611fca565b6121f781856121d1565b9350612207818560208601611fe6565b61221081612010565b840191505092915050565b6122248161207c565b82525050565b61223381611f94565b82525050565b6000606083016000830151848203600086015261225682826121e2565b915050602083015161226b602086018261221b565b50604083015161227e604086018261222a565b508091505092915050565b600060208201905081810360008301526122a38184612239565b905092915050565b6000806000606084860312156122c4576122c3611f05565b5b60006122d286828701612152565b93505060206122e386828701612152565b92505060406122f48682870161209d565b9150509250925092565b600080fd5b600080fd5b7f4e487b7100000000000000000000000000000000000000000000000000000000600052604160045260246000fd5b61234082612010565b810181811067ffffffffffffffff8211171561235f5761235e612308565b5b80604052505050565b6000612372611efb565b905061237e8282612337565b919050565b600067ffffffffffffffff82111561239e5761239d612308565b5b6123a782612010565b9050602081019050919050565b82818337600083830152505050565b60006123d66123d184612383565b612368565b9050828152602081018484840111156123f2576123f1612303565b5b6123fd8482856123b4565b509392505050565b600082601f83011261241a576124196122fe565b5b813561242a8482602086016123c3565b91505092915050565b6000806040838503121561244a57612449611f05565b5b600083013567ffffffffffffffff81111561246857612467611f0a565b5b61247485828601612405565b92505060206124858582860161209d565b9150509250929050565b600060608201905081810360008301526124a98186612021565b90506124b860208301856121a7565b6124c56040830184611fa0565b949350505050565b6000602082840312156124e3576124e2611f05565b5b60006124f184828501612152565b91505092915050565b61250381611f94565b811461250e57600080fd5b50565b600081359050612520816124fa565b92915050565b6000806040838503121561253d5761253c611f05565b5b600061254b85828601612152565b925050602061255c85828601612511565b9150509250929050565b600067ffffffffffffffff82111561258157612580612308565b5b61258a82612010565b9050602081019050919050565b60006125aa6125a584612566565b612368565b9050828152602081018484840111156125c6576125c5612303565b5b6125d18482856123b4565b509392505050565b600082601f8301126125ee576125ed6122fe565b5b81356125fe848260208601612597565b91505092915050565b6000806000806080858703121561262157612620611f05565b5b600061262f87828801612152565b945050602061264087828801612152565b93505060406126518782880161209d565b925050606085013567ffffffffffffffff81111561267257612671611f0a565b5b61267e878288016125d9565b91505092959194509250565b600080604083850312156126a1576126a0611f05565b5b60006126af85828601612152565b92505060206126c085828601612152565b9150509250929050565b7f4e487b7100000000000000000000000000000000000000000000000000000000600052602260045260246000fd5b6000600282049050600182168061271157607f821691505b602082108103612724576127236126ca565b5b50919050565b7f4552433732313a20617070726f76616c20746f2063757272656e74206f776e6560008201527f7200000000000000000000000000000000000000000000000000000000000000602082015250565b6000612786602183611fd5565b91506127918261272a565b604082019050919050565b600060208201905081810360008301526127b581612779565b9050919050565b7f4552433732313a20617070726f76652063616c6c6572206973206e6f7420746f60008201527f6b656e206f776e6572206f7220617070726f76656420666f7220616c6c000000602082015250565b6000612818603d83611fd5565b9150612823826127bc565b604082019050919050565b600060208201905081810360008301526128478161280b565b9050919050565b7f4552433732313a2063616c6c6572206973206e6f7420746f6b656e206f776e6560008201527f72206f7220617070726f76656400000000000000000000000000000000000000602082015250565b60006128aa602d83611fd5565b91506128b58261284e565b604082019050919050565b600060208201905081810360008301526128d98161289d565b9050919050565b7f6d757374206265206f776e657200000000000000000000000000000000000000600082015250565b6000612916600d83611fd5565b9150612921826128e0565b602082019050919050565b6000602082019050818103600083015261294581612909565b9050919050565b600081905092915050565b50565b600061296760008361294c565b915061297282612957565b600082019050919050565b60006129888261295a565b9150819050919050565b7f4e487b7100000000000000000000000000000000000000000000000000000000600052601160045260246000fd5b60006129cc8261207c565b91507fffffffffffffffffffffffffffffffffffffffffffffffffffffffffffffffff82036129fe576129fd612992565b5b600182019050919050565b60008190508160005260206000209050919050565b60006020601f8301049050919050565b600082821b905092915050565b600060088302612a6b7fffffffffffffffffffffffffffffffffffffffffffffffffffffffffffffffff82612a2e565b612a758683612a2e565b95508019841693508086168417925050509392505050565b6000819050919050565b6000612ab2612aad612aa88461207c565b612a8d565b61207c565b9050919050565b6000819050919050565b612acc83612a97565b612ae0612ad882612ab9565b848454612a3b565b825550505050565b600090565b612af5612ae8565b612b00818484612ac3565b505050565b5b81811015612b2457612b19600082612aed565b600181019050612b06565b5050565b601f821115612b6957612b3a81612a09565b612b4384612a1e565b81016020851015612b52578190505b612b66612b5e85612a1e565b830182612b05565b50505b505050565b600082821c905092915050565b6000612b8c60001984600802612b6e565b1980831691505092915050565b6000612ba58383612b7b565b9150826002028217905092915050565b612bbe82611fca565b67ffffffffffffffff811115612bd757612bd6612308565b5b612be182546126f9565b612bec828285612b28565b600060209050601f831160018114612c1f5760008415612c0d578287015190505b612c178582612b99565b865550612c7f565b601f198416612c2d86612a09565b60005b82811015612c5557848901518255600182019150602085019450602081019050612c30565b86831015612c725784890151612c6e601f891682612b7b565b8355505b6001600288020188555050505b505050505050565b7f4552433732313a20696e76616c696420746f6b656e2049440000000000000000600082015250565b6000612cbd601883611fd5565b9150612cc882612c87565b602082019050919050565b60006020820190508181036000830152612cec81612cb0565b9050919050565b7f4552433732313a2061646472657373207a65726f206973206e6f74206120766160008201527f6c6964206f776e65720000000000000000000000000000000000000000000000602082015250565b6000612d4f602983611fd5565b9150612d5a82612cf3565b604082019050919050565b60006020820190508181036000830152612d7e81612d42565b9050919050565b7f6e6f7420656e6f7567682066756e6420746f2062757900000000000000000000600082015250565b6000612dbb601683611fd5565b9150612dc682612d85565b602082019050919050565b60006020820190508181036000830152612dea81612dae565b9050919050565b600081905092915050565b6000612e0782611fca565b612e118185612df1565b9350612e21818560208601611fe6565b80840191505092915050565b6000612e398285612dfc565b9150612e458284612dfc565b91508190509392505050565b7f4552433732313a207472616e736665722066726f6d20696e636f72726563742060008201527f6f776e6572000000000000000000000000000000000000000000000000000000602082015250565b6000612ead602583611fd5565b9150612eb882612e51565b604082019050919050565b60006020820190508181036000830152612edc81612ea0565b9050919050565b7f4552433732313a207472616e7366657220746f20746865207a65726f2061646460008201527f7265737300000000000000000000000000000000000000000000000000000000602082015250565b6000612f3f602483611fd5565b9150612f4a82612ee3565b604082019050919050565b60006020820190508181036000830152612f6e81612f32565b9050919050565b7f4552433732313a20617070726f766520746f2063616c6c657200000000000000600082015250565b6000612fab601983611fd5565b9150612fb682612f75565b602082019050919050565b60006020820190508181036000830152612fda81612f9e565b9050919050565b7f4552433732313a207472616e7366657220746f206e6f6e20455243373231526560008201527f63656976657220696d706c656d656e7465720000000000000000000000000000602082015250565b600061303d603283611fd5565b915061304882612fe1565b604082019050919050565b6000602082019050818103600083015261306c81613030565b9050919050565b7f4e487b7100000000000000000000000000000000000000000000000000000000600052601260045260246000fd5b600081519050919050565b600082825260208201905092915050565b60006130c9826130a2565b6130d381856130ad565b93506130e3818560208601611fe6565b6130ec81612010565b840191505092915050565b600060808201905061310c6000830187612111565b6131196020830186612111565b61312660408301856121a7565b818103606083015261313881846130be565b905095945050505050565b60008151905061315281611f3b565b92915050565b60006020828403121561316e5761316d611f05565b5b600061317c84828501613143565b91505092915050565b7f4552433732313a206d696e7420746f20746865207a65726f2061646472657373600082015250565b60006131bb602083611fd5565b91506131c682613185565b602082019050919050565b600060208201905081810360008301526131ea816131ae565b9050919050565b7f4552433732313a20746f6b656e20616c7265616479206d696e74656400000000600082015250565b6000613227601c83611fd5565b9150613232826131f1565b602082019050919050565b600060208201905081810360008301526132568161321a565b905091905056fea2646970667358221220d0603e84e3f2fbcab3107d5af9df7580a4b3d555ca9418fc668e87e352a8671564736f6c63430008110033",
  "linkReferences": {},
  "deployedLinkReferences": {}
}