{
  "_format": "hh-sol-artifact-1",
  "contractName": "ETHDaddy",
  "sourceName": "contracts/ETHDaddy.sol",
  "abi": [
    {
      "inputs": [
        {
          "internalType": "string",
          "name": "_name",
          "type": "string"
        },
        {
          "internalType": "string",
          "name": "_symbol",
          "type": "string"
        }
      ],
      "stateMutability": "nonpayable",
      "type": "constructor"
    },
    {
      "anonymous": false,
      "inputs": [
        {
          "indexed": true,
          "internalType": "address",
          "name": "owner",
          "type": "address"
        },
        {
          "indexed": true,
          "internalType": "address",
          "name": "approved",
          "type": "address"
        },
        {
          "indexed": true,
          "internalType": "uint256",
          "name": "tokenId",
          "type": "uint256"
        }
      ],
      "name": "Approval",
      "type": "event"
    },
    {
      "anonymous": false,
      "inputs": [
        {
          "indexed": true,
          "internalType": "address",
          "name": "owner",
          "type": "address"
        },
        {
          "indexed": true,
          "internalType": "address",
          "name": "operator",
          "type": "address"
        },
        {
          "indexed": false,
          "internalType": "bool",
          "name": "approved",
          "type": "bool"
        }
      ],
      "name": "ApprovalForAll",
      "type": "event"
    },
    {
      "anonymous": false,
      "inputs": [
        {
          "indexed": true,
          "internalType": "address",
          "name": "from",
          "type": "address"
        },
        {
          "indexed": true,
          "internalType": "address",
          "name": "to",
          "type": "address"
        },
        {
          "indexed": true,
          "internalType": "uint256",
          "name": "tokenId",
          "type": "uint256"
        }
      ],
      "name": "Transfer",
      "type": "event"
    },
    {
      "inputs": [
        {
          "internalType": "address",
          "name": "to",
          "type": "address"
        },
        {
          "internalType": "uint256",
          "name": "tokenId",
          "type": "uint256"
        }
      ],
      "name": "approve",
      "outputs": [],
      "stateMutability": "nonpayable",
      "type": "function"
    },
    {
      "inputs": [
        {
          "internalType": "address",
          "name": "owner",
          "type": "address"
        }
      ],
      "name": "balanceOf",
      "outputs": [
        {
          "internalType": "uint256",
          "name": "",
          "type": "uint256"
        }
      ],
      "stateMutability": "view",
      "type": "function"
    },
    {
      "inputs": [
        {
          "internalType": "uint256",
          "name": "",
          "type": "uint256"
        }
      ],
      "name": "domains",
      "outputs": [
        {
          "internalType": "string",
          "name": "name",
          "type": "string"
        },
        {
          "internalType": "uint256",
          "name": "cost",
          "type": "uint256"
        },
        {
          "internalType": "bool",
          "name": "isOwned",
          "type": "bool"
        }
      ],
      "stateMutability": "view",
      "type": "function"
    },
    {
      "inputs": [
        {
          "internalType": "uint256",
          "name": "tokenId",
          "type": "uint256"
        }
      ],
      "name": "getApproved",
      "outputs": [
        {
          "internalType": "address",
          "name": "",
          "type": "address"
        }
      ],
      "stateMutability": "view",
      "type": "function"
    },
    {
      "inputs": [
        {
          "internalType": "address",
          "name": "owner",
          "type": "address"
        },
        {
          "internalType": "address",
          "name": "operator",
          "type": "address"
        }
      ],
      "name": "isApprovedForAll",
      "outputs": [
        {
          "internalType": "bool",
          "name": "",
          "type": "bool"
        }
      ],
      "stateMutability": "view",
      "type": "function"
    },
    {
      "inputs": [
        {
          "internalType": "string",
          "name": "_name",
          "type": "string"
        },
        {
          "internalType": "uint256",
          "name": "_cost",
          "type": "uint256"
        }
      ],
      "name": "list",
      "outputs": [],
      "stateMutability": "nonpayable",
      "type": "function"
    },
    {
      "inputs": [],
      "name": "name",
      "outputs": [
        {
          "internalType": "string",
          "name": "",
          "type": "string"
        }
      ],
      "stateMutability": "view",
      "type": "function"
    },
    {
      "inputs": [],
      "name": "owner",
      "outputs": [
        {
          "internalType": "address",
          "name": "",
          "type": "address"
        }
      ],
      "stateMutability": "view",
      "type": "function"
    },
    {
      "inputs": [
        {
          "internalType": "uint256",
          "name": "tokenId",
          "type": "uint256"
        }
      ],
      "name": "ownerOf",
      "outputs": [
        {
          "internalType": "address",
          "name": "",
          "type": "address"
        }
      ],
      "stateMutability": "view",
      "type": "function"
    },
    {
      "inputs": [
        {
          "internalType": "address",
          "name": "from",
          "type": "address"
        },
        {
          "internalType": "address",
          "name": "to",
          "type": "address"
        },
        {
          "internalType": "uint256",
          "name": "tokenId",
          "type": "uint256"
        }
      ],
      "name": "safeTransferFrom",
      "outputs": [],
      "stateMutability": "nonpayable",
      "type": "function"
    },
    {
      "inputs": [
        {
          "internalType": "address",
          "name": "from",
          "type": "address"
        },
        {
          "internalType": "address",
          "name": "to",
          "type": "address"
        },
        {
          "internalType": "uint256",
          "name": "tokenId",
          "type": "uint256"
        },
        {
          "internalType": "bytes",
          "name": "data",
          "type": "bytes"
        }
      ],
      "name": "safeTransferFrom",
      "outputs": [],
      "stateMutability": "nonpayable",
      "type": "function"
    },
    {
      "inputs": [
        {
          "internalType": "address",
          "name": "operator",
          "type": "address"
        },
        {
          "internalType": "bool",
          "name": "approved",
          "type": "bool"
        }
      ],
      "name": "setApprovalForAll",
      "outputs": [],
      "stateMutability": "nonpayable",
      "type": "function"
    },
    {
      "inputs": [
        {
          "internalType": "bytes4",
          "name": "interfaceId",
          "type": "bytes4"
        }
      ],
      "name": "supportsInterface",
      "outputs": [
        {
          "internalType": "bool",
          "name": "",
          "type": "bool"
        }
      ],
      "stateMutability": "view",
      "type": "function"
    },
    {
      "inputs": [],
      "name": "symbol",
      "outputs": [
        {
          "internalType": "string",
          "name": "",
          "type": "string"
        }
      ],
      "stateMutability": "view",
      "type": "function"
    },
    {
      "inputs": [
        {
          "internalType": "uint256",
          "name": "tokenId",
          "type": "uint256"
        }
      ],
      "name": "tokenURI",
      "outputs": [
        {
          "internalType": "string",
          "name": "",
          "type": "string"
        }
      ],
      "stateMutability": "view",
      "type": "function"
    },
    {
      "inputs": [
        {
          "internalType": "address",
          "name": "from",
          "type": "address"
        },
        {
          "internalType": "address",
          "name": "to",
          "type": "address"
        },
        {
          "internalType": "uint256",
          "name": "tokenId",
          "type": "uint256"
        }
      ],
      "name": "transferFrom",
      "outputs": [],
      "stateMutability": "nonpayable",
      "type": "function"
    }
  ],
  "bytecode": "0x60806040523480156200001157600080fd5b5060405162002e6238038062002e6283398181016040528101906200003791906200023b565b818181600090816200004a91906200050b565b5080600190816200005c91906200050b565b50505033600760006101000a81548173ffffffffffffffffffffffffffffffffffffffff021916908373ffffffffffffffffffffffffffffffffffffffff1602179055505050620005f2565b6000604051905090565b600080fd5b600080fd5b600080fd5b600080fd5b6000601f19601f8301169050919050565b7f4e487b7100000000000000000000000000000000000000000000000000000000600052604160045260246000fd5b6200011182620000c6565b810181811067ffffffffffffffff82111715620001335762000132620000d7565b5b80604052505050565b600062000148620000a8565b905062000156828262000106565b919050565b600067ffffffffffffffff821115620001795762000178620000d7565b5b6200018482620000c6565b9050602081019050919050565b60005b83811015620001b157808201518184015260208101905062000194565b60008484015250505050565b6000620001d4620001ce846200015b565b6200013c565b905082815260208101848484011115620001f357620001f2620000c1565b5b6200020084828562000191565b509392505050565b600082601f83011262000220576200021f620000bc565b5b815162000232848260208601620001bd565b91505092915050565b60008060408385031215620002555762000254620000b2565b5b600083015167ffffffffffffffff811115620002765762000275620000b7565b5b620002848582860162000208565b925050602083015167ffffffffffffffff811115620002a857620002a7620000b7565b5b620002b68582860162000208565b9150509250929050565b600081519050919050565b7f4e487b7100000000000000000000000000000000000000000000000000000000600052602260045260246000fd5b600060028204905060018216806200031357607f821691505b602082108103620003295762000328620002cb565b5b50919050565b60008190508160005260206000209050919050565b60006020601f8301049050919050565b600082821b905092915050565b600060088302620003937fffffffffffffffffffffffffffffffffffffffffffffffffffffffffffffffff8262000354565b6200039f868362000354565b95508019841693508086168417925050509392505050565b6000819050919050565b6000819050919050565b6000620003ec620003e6620003e084620003b7565b620003c1565b620003b7565b9050919050565b6000819050919050565b6200040883620003cb565b620004206200041782620003f3565b84845462000361565b825550505050565b600090565b6200043762000428565b62000444818484620003fd565b505050565b5b818110156200046c57620004606000826200042d565b6001810190506200044a565b5050565b601f821115620004bb5762000485816200032f565b620004908462000344565b81016020851015620004a0578190505b620004b8620004af8562000344565b83018262000449565b50505b505050565b600082821c905092915050565b6000620004e060001984600802620004c0565b1980831691505092915050565b6000620004fb8383620004cd565b9150826002028217905092915050565b6200051682620002c0565b67ffffffffffffffff811115620005325762000531620000d7565b5b6200053e8254620002fa565b6200054b82828562000470565b600060209050601f8311600181146200058357600084156200056e578287015190505b6200057a8582620004ed565b865550620005ea565b601f19841662000593866200032f565b60005b82811015620005bd5784890151825560018201915060208501945060208101905062000596565b86831015620005dd5784890151620005d9601f891682620004cd565b8355505b6001600288020188555050505b505050505050565b61286080620006026000396000f3fe608060405234801561001057600080fd5b50600436106101005760003560e01c806366cf8fab11610097578063a22cb46511610066578063a22cb465146102c1578063b88d4fde146102dd578063c87b56dd146102f9578063e985e9c51461032957610100565b806366cf8fab1461022357806370a08231146102555780638da5cb5b1461028557806395d89b41146102a357610100565b806323b872dd116100d357806323b872dd1461019f57806342842e0e146101bb5780634a878dfa146101d75780636352211e146101f357610100565b806301ffc9a71461010557806306fdde0314610135578063081812fc14610153578063095ea7b314610183575b600080fd5b61011f600480360381019061011a9190611798565b610359565b60405161012c91906117e0565b60405180910390f35b61013d61043b565b60405161014a919061188b565b60405180910390f35b61016d600480360381019061016891906118e3565b6104cd565b60405161017a9190611951565b60405180910390f35b61019d60048036038101906101989190611998565b610513565b005b6101b960048036038101906101b491906119d8565b61062a565b005b6101d560048036038101906101d091906119d8565b61068a565b005b6101f160048036038101906101ec9190611b60565b6106aa565b005b61020d600480360381019061020891906118e3565b6107cc565b60405161021a9190611951565b60405180910390f35b61023d600480360381019061023891906118e3565b610852565b60405161024c93929190611bcb565b60405180910390f35b61026f600480360381019061026a9190611c09565b610911565b60405161027c9190611c36565b60405180910390f35b61028d6109c8565b60405161029a9190611951565b60405180910390f35b6102ab6109ee565b6040516102b8919061188b565b60405180910390f35b6102db60048036038101906102d69190611c7d565b610a80565b005b6102f760048036038101906102f29190611d5e565b610a96565b005b610313600480360381019061030e91906118e3565b610af8565b604051610320919061188b565b60405180910390f35b610343600480360381019061033e9190611de1565b610b60565b60405161035091906117e0565b60405180910390f35b60007f80ac58cd000000000000000000000000000000000000000000000000000000007bffffffffffffffffffffffffffffffffffffffffffffffffffffffff1916827bffffffffffffffffffffffffffffffffffffffffffffffffffffffff1916148061042457507f5b5e139f000000000000000000000000000000000000000000000000000000007bffffffffffffffffffffffffffffffffffffffffffffffffffffffff1916827bffffffffffffffffffffffffffffffffffffffffffffffffffffffff1916145b80610434575061043382610bf4565b5b9050919050565b60606000805461044a90611e50565b80601f016020809104026020016040519081016040528092919081815260200182805461047690611e50565b80156104c35780601f10610498576101008083540402835291602001916104c3565b820191906000526020600020905b8154815290600101906020018083116104a657829003601f168201915b5050505050905090565b60006104d882610c5e565b6004600083815260200190815260200160002060009054906101000a900473ffffffffffffffffffffffffffffffffffffffff169050919050565b600061051e826107cc565b90508073ffffffffffffffffffffffffffffffffffffffff168373ffffffffffffffffffffffffffffffffffffffff160361058e576040517f08c379a000000000000000000000000000000000000000000000000000000000815260040161058590611ef3565b60405180910390fd5b8073ffffffffffffffffffffffffffffffffffffffff166105ad610ca9565b73ffffffffffffffffffffffffffffffffffffffff1614806105dc57506105db816105d6610ca9565b610b60565b5b61061b576040517f08c379a000000000000000000000000000000000000000000000000000000000815260040161061290611f85565b60405180910390fd5b6106258383610cb1565b505050565b61063b610635610ca9565b82610d6a565b61067a576040517f08c379a000000000000000000000000000000000000000000000000000000000815260040161067190612017565b60405180910390fd5b610685838383610dff565b505050565b6106a583838360405180602001604052806000815250610a96565b505050565b600760009054906101000a900473ffffffffffffffffffffffffffffffffffffffff1673ffffffffffffffffffffffffffffffffffffffff163373ffffffffffffffffffffffffffffffffffffffff161461073a576040517f08c379a000000000000000000000000000000000000000000000000000000000815260040161073190612083565b60405180910390fd5b6006600081548092919061074d906120d2565b9190505550604051806060016040528083815260200182815260200160001515815250600860006006548152602001908152602001600020600082015181600001908161079a91906122c6565b506020820151816001015560408201518160020160006101000a81548160ff0219169083151502179055509050505050565b6000806107d8836110f8565b9050600073ffffffffffffffffffffffffffffffffffffffff168173ffffffffffffffffffffffffffffffffffffffff1603610849576040517f08c379a0000000000000000000000000000000000000000000000000000000008152600401610840906123e4565b60405180910390fd5b80915050919050565b600860205280600052604060002060009150905080600001805461087590611e50565b80601f01602080910402602001604051908101604052809291908181526020018280546108a190611e50565b80156108ee5780601f106108c3576101008083540402835291602001916108ee565b820191906000526020600020905b8154815290600101906020018083116108d157829003601f168201915b5050505050908060010154908060020160009054906101000a900460ff16905083565b60008073ffffffffffffffffffffffffffffffffffffffff168273ffffffffffffffffffffffffffffffffffffffff1603610981576040517f08c379a000000000000000000000000000000000000000000000000000000000815260040161097890612476565b60405180910390fd5b600360008373ffffffffffffffffffffffffffffffffffffffff1673ffffffffffffffffffffffffffffffffffffffff168152602001908152602001600020549050919050565b600760009054906101000a900473ffffffffffffffffffffffffffffffffffffffff1681565b6060600180546109fd90611e50565b80601f0160208091040260200160405190810160405280929190818152602001828054610a2990611e50565b8015610a765780601f10610a4b57610100808354040283529160200191610a76565b820191906000526020600020905b815481529060010190602001808311610a5957829003601f168201915b5050505050905090565b610a92610a8b610ca9565b8383611135565b5050565b610aa7610aa1610ca9565b83610d6a565b610ae6576040517f08c379a0000000000000000000000000000000000000000000000000000000008152600401610add90612017565b60405180910390fd5b610af2848484846112a1565b50505050565b6060610b0382610c5e565b6000610b0d6112fd565b90506000815111610b2d5760405180602001604052806000815250610b58565b80610b3784611314565b604051602001610b489291906124d2565b6040516020818303038152906040525b915050919050565b6000600560008473ffffffffffffffffffffffffffffffffffffffff1673ffffffffffffffffffffffffffffffffffffffff16815260200190815260200160002060008373ffffffffffffffffffffffffffffffffffffffff1673ffffffffffffffffffffffffffffffffffffffff16815260200190815260200160002060009054906101000a900460ff16905092915050565b60007f01ffc9a7000000000000000000000000000000000000000000000000000000007bffffffffffffffffffffffffffffffffffffffffffffffffffffffff1916827bffffffffffffffffffffffffffffffffffffffffffffffffffffffff1916149050919050565b610c67816113e2565b610ca6576040517f08c379a0000000000000000000000000000000000000000000000000000000008152600401610c9d906123e4565b60405180910390fd5b50565b600033905090565b816004600083815260200190815260200160002060006101000a81548173ffffffffffffffffffffffffffffffffffffffff021916908373ffffffffffffffffffffffffffffffffffffffff160217905550808273ffffffffffffffffffffffffffffffffffffffff16610d24836107cc565b73ffffffffffffffffffffffffffffffffffffffff167f8c5be1e5ebec7d5bd14f71427d1e84f3dd0314c0f7b2291e5b200ac8c7c3b92560405160405180910390a45050565b600080610d76836107cc565b90508073ffffffffffffffffffffffffffffffffffffffff168473ffffffffffffffffffffffffffffffffffffffff161480610db85750610db78185610b60565b5b80610df657508373ffffffffffffffffffffffffffffffffffffffff16610dde846104cd565b73ffffffffffffffffffffffffffffffffffffffff16145b91505092915050565b8273ffffffffffffffffffffffffffffffffffffffff16610e1f826107cc565b73ffffffffffffffffffffffffffffffffffffffff1614610e75576040517f08c379a0000000000000000000000000000000000000000000000000000000008152600401610e6c90612568565b60405180910390fd5b600073ffffffffffffffffffffffffffffffffffffffff168273ffffffffffffffffffffffffffffffffffffffff1603610ee4576040517f08c379a0000000000000000000000000000000000000000000000000000000008152600401610edb906125fa565b60405180910390fd5b610ef18383836001611423565b8273ffffffffffffffffffffffffffffffffffffffff16610f11826107cc565b73ffffffffffffffffffffffffffffffffffffffff1614610f67576040517f08c379a0000000000000000000000000000000000000000000000000000000008152600401610f5e90612568565b60405180910390fd5b6004600082815260200190815260200160002060006101000a81549073ffffffffffffffffffffffffffffffffffffffff02191690556001600360008573ffffffffffffffffffffffffffffffffffffffff1673ffffffffffffffffffffffffffffffffffffffff168152602001908152602001600020600082825403925050819055506001600360008473ffffffffffffffffffffffffffffffffffffffff1673ffffffffffffffffffffffffffffffffffffffff16815260200190815260200160002060008282540192505081905550816002600083815260200190815260200160002060006101000a81548173ffffffffffffffffffffffffffffffffffffffff021916908373ffffffffffffffffffffffffffffffffffffffff160217905550808273ffffffffffffffffffffffffffffffffffffffff168473ffffffffffffffffffffffffffffffffffffffff167fddf252ad1be2c89b69c2b068fc378daa952ba7f163c4a11628f55a4df523b3ef60405160405180910390a46110f38383836001611429565b505050565b60006002600083815260200190815260200160002060009054906101000a900473ffffffffffffffffffffffffffffffffffffffff169050919050565b8173ffffffffffffffffffffffffffffffffffffffff168373ffffffffffffffffffffffffffffffffffffffff16036111a3576040517f08c379a000000000000000000000000000000000000000000000000000000000815260040161119a90612666565b60405180910390fd5b80600560008573ffffffffffffffffffffffffffffffffffffffff1673ffffffffffffffffffffffffffffffffffffffff16815260200190815260200160002060008473ffffffffffffffffffffffffffffffffffffffff1673ffffffffffffffffffffffffffffffffffffffff16815260200190815260200160002060006101000a81548160ff0219169083151502179055508173ffffffffffffffffffffffffffffffffffffffff168373ffffffffffffffffffffffffffffffffffffffff167f17307eab39ab6107e8899845ad3d59bd9653f200f220920489ca2b5937696c318360405161129491906117e0565b60405180910390a3505050565b6112ac848484610dff565b6112b88484848461142f565b6112f7576040517f08c379a00000000000000000000000000000000000000000000000000000000081526004016112ee906126f8565b60405180910390fd5b50505050565b606060405180602001604052806000815250905090565b606060006001611323846115b6565b01905060008167ffffffffffffffff81111561134257611341611a35565b5b6040519080825280601f01601f1916602001820160405280156113745781602001600182028036833780820191505090505b509050600082602001820190505b6001156113d7578080600190039150507f3031323334353637383961626364656600000000000000000000000000000000600a86061a8153600a85816113cb576113ca612718565b5b04945060008503611382575b819350505050919050565b60008073ffffffffffffffffffffffffffffffffffffffff16611404836110f8565b73ffffffffffffffffffffffffffffffffffffffff1614159050919050565b50505050565b50505050565b60006114508473ffffffffffffffffffffffffffffffffffffffff16611709565b156115a9578373ffffffffffffffffffffffffffffffffffffffff1663150b7a02611479610ca9565b8786866040518563ffffffff1660e01b815260040161149b949392919061279c565b6020604051808303816000875af19250505080156114d757506040513d601f19601f820116820180604052508101906114d491906127fd565b60015b611559573d8060008114611507576040519150601f19603f3d011682016040523d82523d6000602084013e61150c565b606091505b506000815103611551576040517f08c379a0000000000000000000000000000000000000000000000000000000008152600401611548906126f8565b60405180910390fd5b805181602001fd5b63150b7a0260e01b7bffffffffffffffffffffffffffffffffffffffffffffffffffffffff1916817bffffffffffffffffffffffffffffffffffffffffffffffffffffffff1916149150506115ae565b600190505b949350505050565b600080600090507a184f03e93ff9f4daa797ed6e38ed64bf6a1f0100000000000000008310611614577a184f03e93ff9f4daa797ed6e38ed64bf6a1f010000000000000000838161160a57611609612718565b5b0492506040810190505b6d04ee2d6d415b85acef81000000008310611651576d04ee2d6d415b85acef8100000000838161164757611646612718565b5b0492506020810190505b662386f26fc10000831061168057662386f26fc10000838161167657611675612718565b5b0492506010810190505b6305f5e10083106116a9576305f5e100838161169f5761169e612718565b5b0492506008810190505b61271083106116ce5761271083816116c4576116c3612718565b5b0492506004810190505b606483106116f157606483816116e7576116e6612718565b5b0492506002810190505b600a8310611700576001810190505b80915050919050565b6000808273ffffffffffffffffffffffffffffffffffffffff163b119050919050565b6000604051905090565b600080fd5b600080fd5b60007fffffffff0000000000000000000000000000000000000000000000000000000082169050919050565b61177581611740565b811461178057600080fd5b50565b6000813590506117928161176c565b92915050565b6000602082840312156117ae576117ad611736565b5b60006117bc84828501611783565b91505092915050565b60008115159050919050565b6117da816117c5565b82525050565b60006020820190506117f560008301846117d1565b92915050565b600081519050919050565b600082825260208201905092915050565b60005b8381101561183557808201518184015260208101905061181a565b60008484015250505050565b6000601f19601f8301169050919050565b600061185d826117fb565b6118678185611806565b9350611877818560208601611817565b61188081611841565b840191505092915050565b600060208201905081810360008301526118a58184611852565b905092915050565b6000819050919050565b6118c0816118ad565b81146118cb57600080fd5b50565b6000813590506118dd816118b7565b92915050565b6000602082840312156118f9576118f8611736565b5b6000611907848285016118ce565b91505092915050565b600073ffffffffffffffffffffffffffffffffffffffff82169050919050565b600061193b82611910565b9050919050565b61194b81611930565b82525050565b60006020820190506119666000830184611942565b92915050565b61197581611930565b811461198057600080fd5b50565b6000813590506119928161196c565b92915050565b600080604083850312156119af576119ae611736565b5b60006119bd85828601611983565b92505060206119ce858286016118ce565b9150509250929050565b6000806000606084860312156119f1576119f0611736565b5b60006119ff86828701611983565b9350506020611a1086828701611983565b9250506040611a21868287016118ce565b9150509250925092565b600080fd5b600080fd5b7f4e487b7100000000000000000000000000000000000000000000000000000000600052604160045260246000fd5b611a6d82611841565b810181811067ffffffffffffffff82111715611a8c57611a8b611a35565b5b80604052505050565b6000611a9f61172c565b9050611aab8282611a64565b919050565b600067ffffffffffffffff821115611acb57611aca611a35565b5b611ad482611841565b9050602081019050919050565b82818337600083830152505050565b6000611b03611afe84611ab0565b611a95565b905082815260208101848484011115611b1f57611b1e611a30565b5b611b2a848285611ae1565b509392505050565b600082601f830112611b4757611b46611a2b565b5b8135611b57848260208601611af0565b91505092915050565b60008060408385031215611b7757611b76611736565b5b600083013567ffffffffffffffff811115611b9557611b9461173b565b5b611ba185828601611b32565b9250506020611bb2858286016118ce565b9150509250929050565b611bc5816118ad565b82525050565b60006060820190508181036000830152611be58186611852565b9050611bf46020830185611bbc565b611c0160408301846117d1565b949350505050565b600060208284031215611c1f57611c1e611736565b5b6000611c2d84828501611983565b91505092915050565b6000602082019050611c4b6000830184611bbc565b92915050565b611c5a816117c5565b8114611c6557600080fd5b50565b600081359050611c7781611c51565b92915050565b60008060408385031215611c9457611c93611736565b5b6000611ca285828601611983565b9250506020611cb385828601611c68565b9150509250929050565b600067ffffffffffffffff821115611cd857611cd7611a35565b5b611ce182611841565b9050602081019050919050565b6000611d01611cfc84611cbd565b611a95565b905082815260208101848484011115611d1d57611d1c611a30565b5b611d28848285611ae1565b509392505050565b600082601f830112611d4557611d44611a2b565b5b8135611d55848260208601611cee565b91505092915050565b60008060008060808587031215611d7857611d77611736565b5b6000611d8687828801611983565b9450506020611d9787828801611983565b9350506040611da8878288016118ce565b925050606085013567ffffffffffffffff811115611dc957611dc861173b565b5b611dd587828801611d30565b91505092959194509250565b60008060408385031215611df857611df7611736565b5b6000611e0685828601611983565b9250506020611e1785828601611983565b9150509250929050565b7f4e487b7100000000000000000000000000000000000000000000000000000000600052602260045260246000fd5b60006002820490506001821680611e6857607f821691505b602082108103611e7b57611e7a611e21565b5b50919050565b7f4552433732313a20617070726f76616c20746f2063757272656e74206f776e6560008201527f7200000000000000000000000000000000000000000000000000000000000000602082015250565b6000611edd602183611806565b9150611ee882611e81565b604082019050919050565b60006020820190508181036000830152611f0c81611ed0565b9050919050565b7f4552433732313a20617070726f76652063616c6c6572206973206e6f7420746f60008201527f6b656e206f776e6572206f7220617070726f76656420666f7220616c6c000000602082015250565b6000611f6f603d83611806565b9150611f7a82611f13565b604082019050919050565b60006020820190508181036000830152611f9e81611f62565b9050919050565b7f4552433732313a2063616c6c6572206973206e6f7420746f6b656e206f776e6560008201527f72206f7220617070726f76656400000000000000000000000000000000000000602082015250565b6000612001602d83611806565b915061200c82611fa5565b604082019050919050565b6000602082019050818103600083015261203081611ff4565b9050919050565b7f6d757374206265206f776e657200000000000000000000000000000000000000600082015250565b600061206d600d83611806565b915061207882612037565b602082019050919050565b6000602082019050818103600083015261209c81612060565b9050919050565b7f4e487b7100000000000000000000000000000000000000000000000000000000600052601160045260246000fd5b60006120dd826118ad565b91507fffffffffffffffffffffffffffffffffffffffffffffffffffffffffffffffff820361210f5761210e6120a3565b5b600182019050919050565b60008190508160005260206000209050919050565b60006020601f8301049050919050565b600082821b905092915050565b60006008830261217c7fffffffffffffffffffffffffffffffffffffffffffffffffffffffffffffffff8261213f565b612186868361213f565b95508019841693508086168417925050509392505050565b6000819050919050565b60006121c36121be6121b9846118ad565b61219e565b6118ad565b9050919050565b6000819050919050565b6121dd836121a8565b6121f16121e9826121ca565b84845461214c565b825550505050565b600090565b6122066121f9565b6122118184846121d4565b505050565b5b818110156122355761222a6000826121fe565b600181019050612217565b5050565b601f82111561227a5761224b8161211a565b6122548461212f565b81016020851015612263578190505b61227761226f8561212f565b830182612216565b50505b505050565b600082821c905092915050565b600061229d6000198460080261227f565b1980831691505092915050565b60006122b6838361228c565b9150826002028217905092915050565b6122cf826117fb565b67ffffffffffffffff8111156122e8576122e7611a35565b5b6122f28254611e50565b6122fd828285612239565b600060209050601f831160018114612330576000841561231e578287015190505b61232885826122aa565b865550612390565b601f19841661233e8661211a565b60005b8281101561236657848901518255600182019150602085019450602081019050612341565b86831015612383578489015161237f601f89168261228c565b8355505b6001600288020188555050505b505050505050565b7f4552433732313a20696e76616c696420746f6b656e2049440000000000000000600082015250565b60006123ce601883611806565b91506123d982612398565b602082019050919050565b600060208201905081810360008301526123fd816123c1565b9050919050565b7f4552433732313a2061646472657373207a65726f206973206e6f74206120766160008201527f6c6964206f776e65720000000000000000000000000000000000000000000000602082015250565b6000612460602983611806565b915061246b82612404565b604082019050919050565b6000602082019050818103600083015261248f81612453565b9050919050565b600081905092915050565b60006124ac826117fb565b6124b68185612496565b93506124c6818560208601611817565b80840191505092915050565b60006124de82856124a1565b91506124ea82846124a1565b91508190509392505050565b7f4552433732313a207472616e736665722066726f6d20696e636f72726563742060008201527f6f776e6572000000000000000000000000000000000000000000000000000000602082015250565b6000612552602583611806565b915061255d826124f6565b604082019050919050565b6000602082019050818103600083015261258181612545565b9050919050565b7f4552433732313a207472616e7366657220746f20746865207a65726f2061646460008201527f7265737300000000000000000000000000000000000000000000000000000000602082015250565b60006125e4602483611806565b91506125ef82612588565b604082019050919050565b60006020820190508181036000830152612613816125d7565b9050919050565b7f4552433732313a20617070726f766520746f2063616c6c657200000000000000600082015250565b6000612650601983611806565b915061265b8261261a565b602082019050919050565b6000602082019050818103600083015261267f81612643565b9050919050565b7f4552433732313a207472616e7366657220746f206e6f6e20455243373231526560008201527f63656976657220696d706c656d656e7465720000000000000000000000000000602082015250565b60006126e2603283611806565b91506126ed82612686565b604082019050919050565b60006020820190508181036000830152612711816126d5565b9050919050565b7f4e487b7100000000000000000000000000000000000000000000000000000000600052601260045260246000fd5b600081519050919050565b600082825260208201905092915050565b600061276e82612747565b6127788185612752565b9350612788818560208601611817565b61279181611841565b840191505092915050565b60006080820190506127b16000830187611942565b6127be6020830186611942565b6127cb6040830185611bbc565b81810360608301526127dd8184612763565b905095945050505050565b6000815190506127f78161176c565b92915050565b60006020828403121561281357612812611736565b5b6000612821848285016127e8565b9150509291505056fea2646970667358221220f1ce775952da450d7996e933b26def6250fbd077d14aed13c101331869761ee164736f6c63430008110033",
  "linkReferences": {},
  "deployedLinkReferences": {}
}